{
  "contractName": "LPStakingPool",
  "abi": [
    {
      "inputs": [
        {
          "internalType": "address",
          "name": "_titi",
          "type": "address"
        },
        {
          "internalType": "address",
          "name": "_lpToken",
          "type": "address"
        }
      ],
      "stateMutability": "nonpayable",
      "type": "constructor"
    },
    {
      "anonymous": false,
      "inputs": [
        {
          "indexed": true,
          "internalType": "address",
          "name": "previousOwner",
          "type": "address"
        },
        {
          "indexed": true,
          "internalType": "address",
          "name": "newOwner",
          "type": "address"
        }
      ],
      "name": "OwnershipTransferred",
      "type": "event"
    },
    {
      "anonymous": false,
      "inputs": [
        {
          "indexed": false,
          "internalType": "uint256",
          "name": "reward",
          "type": "uint256"
        }
      ],
      "name": "RewardAdded",
      "type": "event"
    },
    {
      "anonymous": false,
      "inputs": [
        {
          "indexed": true,
          "internalType": "address",
          "name": "user",
          "type": "address"
        },
        {
          "indexed": false,
          "internalType": "uint256",
          "name": "reward",
          "type": "uint256"
        }
      ],
      "name": "RewardPaid",
      "type": "event"
    },
    {
      "anonymous": false,
      "inputs": [
        {
          "indexed": true,
          "internalType": "address",
          "name": "user",
          "type": "address"
        },
        {
          "indexed": false,
          "internalType": "uint256",
          "name": "amount",
          "type": "uint256"
        }
      ],
      "name": "Staked",
      "type": "event"
    },
    {
      "anonymous": false,
      "inputs": [
        {
          "indexed": true,
          "internalType": "address",
          "name": "user",
          "type": "address"
        },
        {
          "indexed": false,
          "internalType": "uint256",
          "name": "amount",
          "type": "uint256"
        }
      ],
      "name": "Withdrawn",
      "type": "event"
    },
    {
      "inputs": [
        {
          "internalType": "address",
          "name": "account",
          "type": "address"
        }
      ],
      "name": "balanceOf",
      "outputs": [
        {
          "internalType": "uint256",
          "name": "",
          "type": "uint256"
        }
      ],
      "stateMutability": "view",
      "type": "function"
    },
    {
      "inputs": [],
      "name": "epochNum",
      "outputs": [
        {
          "internalType": "uint256",
          "name": "",
          "type": "uint256"
        }
      ],
      "stateMutability": "view",
      "type": "function"
    },
    {
      "inputs": [],
      "name": "lastUpdateTime",
      "outputs": [
        {
          "internalType": "uint256",
          "name": "",
          "type": "uint256"
        }
      ],
      "stateMutability": "view",
      "type": "function"
    },
    {
      "inputs": [],
      "name": "lpToken",
      "outputs": [
        {
          "internalType": "contract IERC20",
          "name": "",
          "type": "address"
        }
      ],
      "stateMutability": "view",
      "type": "function"
    },
    {
      "inputs": [],
      "name": "owner",
      "outputs": [
        {
          "internalType": "address",
          "name": "",
          "type": "address"
        }
      ],
      "stateMutability": "view",
      "type": "function"
    },
    {
      "inputs": [],
      "name": "periodFinish",
      "outputs": [
        {
          "internalType": "uint256",
          "name": "",
          "type": "uint256"
        }
      ],
      "stateMutability": "view",
      "type": "function"
    },
    {
      "inputs": [],
      "name": "renounceOwnership",
      "outputs": [],
      "stateMutability": "nonpayable",
      "type": "function"
    },
    {
      "inputs": [],
      "name": "rewardDistribution",
      "outputs": [
        {
          "internalType": "address",
          "name": "",
          "type": "address"
        }
      ],
      "stateMutability": "view",
      "type": "function"
    },
    {
      "inputs": [],
      "name": "rewardPerTokenStored",
      "outputs": [
        {
          "internalType": "uint256",
          "name": "",
          "type": "uint256"
        }
      ],
      "stateMutability": "view",
      "type": "function"
    },
    {
      "inputs": [],
      "name": "rewardRate",
      "outputs": [
        {
          "internalType": "uint256",
          "name": "",
          "type": "uint256"
        }
      ],
      "stateMutability": "view",
      "type": "function"
    },
    {
      "inputs": [
        {
          "internalType": "address",
          "name": "",
          "type": "address"
        }
      ],
      "name": "rewards",
      "outputs": [
        {
          "internalType": "uint256",
          "name": "",
          "type": "uint256"
        }
      ],
      "stateMutability": "view",
      "type": "function"
    },
    {
      "inputs": [
        {
          "internalType": "address",
          "name": "_rewardDistribution",
          "type": "address"
        }
      ],
      "name": "setRewardDistribution",
      "outputs": [],
      "stateMutability": "nonpayable",
      "type": "function"
    },
    {
      "inputs": [],
      "name": "startTime",
      "outputs": [
        {
          "internalType": "uint256",
          "name": "",
          "type": "uint256"
        }
      ],
      "stateMutability": "view",
      "type": "function"
    },
    {
      "inputs": [],
      "name": "titi",
      "outputs": [
        {
          "internalType": "contract IERC20",
          "name": "",
          "type": "address"
        }
      ],
      "stateMutability": "view",
      "type": "function"
    },
    {
      "inputs": [],
      "name": "totalSupply",
      "outputs": [
        {
          "internalType": "uint256",
          "name": "",
          "type": "uint256"
        }
      ],
      "stateMutability": "view",
      "type": "function"
    },
    {
      "inputs": [
        {
          "internalType": "address",
          "name": "newOwner",
          "type": "address"
        }
      ],
      "name": "transferOwnership",
      "outputs": [],
      "stateMutability": "nonpayable",
      "type": "function"
    },
    {
      "inputs": [
        {
          "internalType": "address",
          "name": "",
          "type": "address"
        }
      ],
      "name": "userRewardPerTokenPaid",
      "outputs": [
        {
          "internalType": "uint256",
          "name": "",
          "type": "uint256"
        }
      ],
      "stateMutability": "view",
      "type": "function"
    },
    {
      "inputs": [
        {
          "internalType": "uint256",
          "name": "_startTime",
          "type": "uint256"
        },
        {
          "internalType": "uint256",
          "name": "_newRewards",
          "type": "uint256"
        },
        {
          "internalType": "uint256",
          "name": "_duration",
          "type": "uint256"
        }
      ],
      "name": "startNewEpoch",
      "outputs": [],
      "stateMutability": "nonpayable",
      "type": "function"
    },
    {
      "inputs": [],
      "name": "lastTimeRewardApplicable",
      "outputs": [
        {
          "internalType": "uint256",
          "name": "",
          "type": "uint256"
        }
      ],
      "stateMutability": "view",
      "type": "function"
    },
    {
      "inputs": [],
      "name": "rewardPerToken",
      "outputs": [
        {
          "internalType": "uint256",
          "name": "",
          "type": "uint256"
        }
      ],
      "stateMutability": "view",
      "type": "function"
    },
    {
      "inputs": [
        {
          "internalType": "address",
          "name": "account",
          "type": "address"
        }
      ],
      "name": "earned",
      "outputs": [
        {
          "internalType": "uint256",
          "name": "",
          "type": "uint256"
        }
      ],
      "stateMutability": "view",
      "type": "function"
    },
    {
      "inputs": [
        {
          "internalType": "uint256",
          "name": "amount",
          "type": "uint256"
        }
      ],
      "name": "stake",
      "outputs": [],
      "stateMutability": "nonpayable",
      "type": "function"
    },
    {
      "inputs": [
        {
          "internalType": "uint256",
          "name": "amount",
          "type": "uint256"
        }
      ],
      "name": "withdraw",
      "outputs": [],
      "stateMutability": "nonpayable",
      "type": "function"
    },
    {
      "inputs": [],
      "name": "getReward",
      "outputs": [],
      "stateMutability": "nonpayable",
      "type": "function"
    },
    {
      "inputs": [
        {
          "internalType": "contract IERC20",
          "name": "_token",
          "type": "address"
        },
        {
          "internalType": "uint256",
          "name": "amount",
          "type": "uint256"
        },
        {
          "internalType": "address",
          "name": "to",
          "type": "address"
        }
      ],
      "name": "governanceRecoverUnsupported",
      "outputs": [],
      "stateMutability": "nonpayable",
      "type": "function"
    }
  ],
  "bytecode": "0x60a06040523480156200001157600080fd5b50604051620029713803806200297183398181016040528101906200003791906200020b565b620000576200004b620000d360201b60201c565b620000db60201b60201c565b8173ffffffffffffffffffffffffffffffffffffffff1660808173ffffffffffffffffffffffffffffffffffffffff1681525050806000806101000a81548173ffffffffffffffffffffffffffffffffffffffff021916908373ffffffffffffffffffffffffffffffffffffffff160217905550505062000252565b600033905090565b6000600360009054906101000a900473ffffffffffffffffffffffffffffffffffffffff16905081600360006101000a81548173ffffffffffffffffffffffffffffffffffffffff021916908373ffffffffffffffffffffffffffffffffffffffff1602179055508173ffffffffffffffffffffffffffffffffffffffff168173ffffffffffffffffffffffffffffffffffffffff167f8be0079c531659141344cd1fd0a4f28419497f9722a3daafe3b4186f6b6457e060405160405180910390a35050565b600080fd5b600073ffffffffffffffffffffffffffffffffffffffff82169050919050565b6000620001d382620001a6565b9050919050565b620001e581620001c6565b8114620001f157600080fd5b50565b6000815190506200020581620001da565b92915050565b60008060408385031215620002255762000224620001a1565b5b60006200023585828601620001f4565b92505060206200024885828601620001f4565b9150509250929050565b6080516126ee620002836000396000818161097b01528181610b6001528181610d0401526110b301526126ee6000f3fe608060405234801561001057600080fd5b50600436106101a75760003560e01c8063715018a6116100f95780638da5cb5b11610097578063cd3daf9d11610071578063cd3daf9d14610470578063df136d651461048e578063ebe2b12b146104ac578063f2fde38b146104ca576101a7565b80638da5cb5b14610418578063a694fc3a14610436578063c8f33c9114610452576101a7565b80637acb7757116100d35780637acb7757146103905780637b0a47ee146103ac57806380faa57d146103ca5780638b876347146103e8576101a7565b8063715018a61461034c57806375a939b91461035657806378e9792514610372576101a7565b806318160ddd116101665780633d18b912116101405780633d18b912146102d857806354575af4146102e25780635fcbd285146102fe57806370a082311461031c576101a7565b806318160ddd146102805780632e1a7d4d1461029e578063323ffb49146102ba576101a7565b80628cc262146101ac578062f714ce146101dc57806305e3c05b146101f85780630700037d146102165780630d68b76114610246578063101114cf14610262575b600080fd5b6101c660048036038101906101c19190611ace565b6104e6565b6040516101d39190611b14565b60405180910390f35b6101f660048036038101906101f19190611b5b565b6105b1565b005b6102006106a2565b60405161020d9190611b14565b60405180910390f35b610230600480360381019061022b9190611ace565b6106a8565b60405161023d9190611b14565b60405180910390f35b610260600480360381019061025b9190611ace565b6106c0565b005b61026a610780565b6040516102779190611baa565b60405180910390f35b6102886107a6565b6040516102959190611b14565b60405180910390f35b6102b860048036038101906102b39190611bc5565b6107b0565b005b6102c2610979565b6040516102cf9190611c51565b60405180910390f35b6102e061099d565b005b6102fc60048036038101906102f79190611caa565b610bf7565b005b610306610dc1565b6040516103139190611c51565b60405180910390f35b61033660048036038101906103319190611ace565b610de5565b6040516103439190611b14565b60405180910390f35b610354610e2e565b005b610370600480360381019061036b9190611cfd565b610eb6565b005b61037a611152565b6040516103879190611b14565b60405180910390f35b6103aa60048036038101906103a59190611b5b565b611158565b005b6103b461124b565b6040516103c19190611b14565b60405180910390f35b6103d2611251565b6040516103df9190611b14565b60405180910390f35b61040260048036038101906103fd9190611ace565b61127e565b60405161040f9190611b14565b60405180910390f35b610420611296565b60405161042d9190611baa565b60405180910390f35b610450600480360381019061044b9190611bc5565b6112c0565b005b61045a611489565b6040516104679190611b14565b60405180910390f35b61047861148f565b6040516104859190611b14565b60405180910390f35b610496611504565b6040516104a39190611b14565b60405180910390f35b6104b461150a565b6040516104c19190611b14565b60405180910390f35b6104e460048036038101906104df9190611ace565b611510565b005b6000600c60008373ffffffffffffffffffffffffffffffffffffffff1673ffffffffffffffffffffffffffffffffffffffff16815260200190815260200160002054670de0b6b3a7640000600b60008573ffffffffffffffffffffffffffffffffffffffff1673ffffffffffffffffffffffffffffffffffffffff1681526020019081526020016000205461057961148f565b6105839190611d7f565b61058c85610de5565b6105969190611db3565b6105a09190611e3c565b6105aa9190611e6d565b9050919050565b816001546105bf9190611d7f565b60018190555081600260008373ffffffffffffffffffffffffffffffffffffffff1673ffffffffffffffffffffffffffffffffffffffff168152602001908152602001600020546106109190611d7f565b600260008373ffffffffffffffffffffffffffffffffffffffff1673ffffffffffffffffffffffffffffffffffffffff1681526020019081526020016000208190555061069e338360008054906101000a900473ffffffffffffffffffffffffffffffffffffffff1673ffffffffffffffffffffffffffffffffffffffff166116089092919063ffffffff16565b5050565b600a5481565b600c6020528060005260406000206000915090505481565b6106c861168e565b73ffffffffffffffffffffffffffffffffffffffff166106e6611296565b73ffffffffffffffffffffffffffffffffffffffff161461073c576040517f08c379a000000000000000000000000000000000000000000000000000000000815260040161073390611f20565b60405180910390fd5b80600460006101000a81548173ffffffffffffffffffffffffffffffffffffffff021916908373ffffffffffffffffffffffffffffffffffffffff16021790555050565b600460009054906101000a900473ffffffffffffffffffffffffffffffffffffffff1681565b6000600154905090565b336107b961148f565b6009819055506107c7611251565b600881905550600073ffffffffffffffffffffffffffffffffffffffff168173ffffffffffffffffffffffffffffffffffffffff16146108945761080a816104e6565b600c60008373ffffffffffffffffffffffffffffffffffffffff1673ffffffffffffffffffffffffffffffffffffffff16815260200190815260200160002081905550600954600b60008373ffffffffffffffffffffffffffffffffffffffff1673ffffffffffffffffffffffffffffffffffffffff168152602001908152602001600020819055505b600060055414156108da576040517f08c379a00000000000000000000000000000000000000000000000000000000081526004016108d190611f8c565b60405180910390fd5b6000821161091d576040517f08c379a000000000000000000000000000000000000000000000000000000000815260040161091490611ff8565b60405180910390fd5b61092782336105b1565b3373ffffffffffffffffffffffffffffffffffffffff167f7084f5476618d8e60b11ef0d7d3f06914655adb8793e28ff7f018d4c76d505d58360405161096d9190611b14565b60405180910390a25050565b7f000000000000000000000000000000000000000000000000000000000000000081565b336109a661148f565b6009819055506109b4611251565b600881905550600073ffffffffffffffffffffffffffffffffffffffff168173ffffffffffffffffffffffffffffffffffffffff1614610a81576109f7816104e6565b600c60008373ffffffffffffffffffffffffffffffffffffffff1673ffffffffffffffffffffffffffffffffffffffff16815260200190815260200160002081905550600954600b60008373ffffffffffffffffffffffffffffffffffffffff1673ffffffffffffffffffffffffffffffffffffffff168152602001908152602001600020819055505b60006005541415610ac7576040517f08c379a0000000000000000000000000000000000000000000000000000000008152600401610abe90611f8c565b60405180910390fd5b6000600c60003373ffffffffffffffffffffffffffffffffffffffff1673ffffffffffffffffffffffffffffffffffffffff1681526020019081526020016000205490506000811115610bf3576000600c60003373ffffffffffffffffffffffffffffffffffffffff1673ffffffffffffffffffffffffffffffffffffffff16815260200190815260200160002081905550610ba433827f000000000000000000000000000000000000000000000000000000000000000073ffffffffffffffffffffffffffffffffffffffff166116089092919063ffffffff16565b3373ffffffffffffffffffffffffffffffffffffffff167fe2403640ba68fed3a2f88b7557551d1993f84b99bb10ff833f0cf8db0c5e048682604051610bea9190611b14565b60405180910390a25b5050565b610bff61168e565b73ffffffffffffffffffffffffffffffffffffffff16610c1d611296565b73ffffffffffffffffffffffffffffffffffffffff1614610c73576040517f08c379a0000000000000000000000000000000000000000000000000000000008152600401610c6a90611f20565b60405180910390fd5b60008054906101000a900473ffffffffffffffffffffffffffffffffffffffff1673ffffffffffffffffffffffffffffffffffffffff168373ffffffffffffffffffffffffffffffffffffffff161415610d02576040517f08c379a0000000000000000000000000000000000000000000000000000000008152600401610cf990612064565b60405180910390fd5b7f000000000000000000000000000000000000000000000000000000000000000073ffffffffffffffffffffffffffffffffffffffff168373ffffffffffffffffffffffffffffffffffffffff161415610d91576040517f08c379a0000000000000000000000000000000000000000000000000000000008152600401610d88906120d0565b60405180910390fd5b610dbc81838573ffffffffffffffffffffffffffffffffffffffff166116089092919063ffffffff16565b505050565b60008054906101000a900473ffffffffffffffffffffffffffffffffffffffff1681565b6000600260008373ffffffffffffffffffffffffffffffffffffffff1673ffffffffffffffffffffffffffffffffffffffff168152602001908152602001600020549050919050565b610e3661168e565b73ffffffffffffffffffffffffffffffffffffffff16610e54611296565b73ffffffffffffffffffffffffffffffffffffffff1614610eaa576040517f08c379a0000000000000000000000000000000000000000000000000000000008152600401610ea190611f20565b60405180910390fd5b610eb46000611696565b565b600460009054906101000a900473ffffffffffffffffffffffffffffffffffffffff1673ffffffffffffffffffffffffffffffffffffffff16610ef761168e565b73ffffffffffffffffffffffffffffffffffffffff1614610f4d576040517f08c379a0000000000000000000000000000000000000000000000000000000008152600401610f4490612162565b60405180910390fd5b6000610f5761148f565b600981905550610f65611251565b600881905550600073ffffffffffffffffffffffffffffffffffffffff168173ffffffffffffffffffffffffffffffffffffffff161461103257610fa8816104e6565b600c60008373ffffffffffffffffffffffffffffffffffffffff1673ffffffffffffffffffffffffffffffffffffffff16815260200190815260200160002081905550600954600b60008373ffffffffffffffffffffffffffffffffffffffff1673ffffffffffffffffffffffffffffffffffffffff168152602001908152602001600020819055505b600654421015611077576040517f08c379a000000000000000000000000000000000000000000000000000000000815260040161106e906121f4565b60405180910390fd5b836005819055508360088190555081836110919190611e3c565b600781905550816005546110a59190611e6d565b6006819055506110f83330857f000000000000000000000000000000000000000000000000000000000000000073ffffffffffffffffffffffffffffffffffffffff1661175c909392919063ffffffff16565b600a600081548092919061110b90612214565b91905055600a819055507fde88a922e0d3b88b24e9623efeb464919c6bf9f66857a65e2bfcf2ce87a9433d836040516111449190611b14565b60405180910390a150505050565b60055481565b816001546111669190611e6d565b60018190555081600260008373ffffffffffffffffffffffffffffffffffffffff1673ffffffffffffffffffffffffffffffffffffffff168152602001908152602001600020546111b79190611e6d565b600260008373ffffffffffffffffffffffffffffffffffffffff1673ffffffffffffffffffffffffffffffffffffffff1681526020019081526020016000208190555061124733308460008054906101000a900473ffffffffffffffffffffffffffffffffffffffff1673ffffffffffffffffffffffffffffffffffffffff1661175c909392919063ffffffff16565b5050565b60075481565b600080600554421015611268576005549050611277565b611274426006546117e5565b90505b8091505090565b600b6020528060005260406000206000915090505481565b6000600360009054906101000a900473ffffffffffffffffffffffffffffffffffffffff16905090565b336112c961148f565b6009819055506112d7611251565b600881905550600073ffffffffffffffffffffffffffffffffffffffff168173ffffffffffffffffffffffffffffffffffffffff16146113a45761131a816104e6565b600c60008373ffffffffffffffffffffffffffffffffffffffff1673ffffffffffffffffffffffffffffffffffffffff16815260200190815260200160002081905550600954600b60008373ffffffffffffffffffffffffffffffffffffffff1673ffffffffffffffffffffffffffffffffffffffff168152602001908152602001600020819055505b600060055414156113ea576040517f08c379a00000000000000000000000000000000000000000000000000000000081526004016113e190611f8c565b60405180910390fd5b6000821161142d576040517f08c379a0000000000000000000000000000000000000000000000000000000008152600401611424906122a9565b60405180910390fd5b6114378233611158565b3373ffffffffffffffffffffffffffffffffffffffff167f9e71bc8eea02a63969f509818f2dafb9254532904319f9dbda79b67bd34a5f3d8360405161147d9190611b14565b60405180910390a25050565b60085481565b60008061149a6107a6565b14156114aa576009549050611501565b6114b26107a6565b670de0b6b3a76400006007546008546114c9611251565b6114d39190611d7f565b6114dd9190611db3565b6114e79190611db3565b6114f19190611e3c565b6009546114fe9190611e6d565b90505b90565b60095481565b60065481565b61151861168e565b73ffffffffffffffffffffffffffffffffffffffff16611536611296565b73ffffffffffffffffffffffffffffffffffffffff161461158c576040517f08c379a000000000000000000000000000000000000000000000000000000000815260040161158390611f20565b60405180910390fd5b600073ffffffffffffffffffffffffffffffffffffffff168173ffffffffffffffffffffffffffffffffffffffff1614156115fc576040517f08c379a00000000000000000000000000000000000000000000000000000000081526004016115f39061233b565b60405180910390fd5b61160581611696565b50565b6116898363a9059cbb60e01b848460405160240161162792919061235b565b604051602081830303815290604052907bffffffffffffffffffffffffffffffffffffffffffffffffffffffff19166020820180517bffffffffffffffffffffffffffffffffffffffffffffffffffffffff83818316178352505050506117fe565b505050565b600033905090565b6000600360009054906101000a900473ffffffffffffffffffffffffffffffffffffffff16905081600360006101000a81548173ffffffffffffffffffffffffffffffffffffffff021916908373ffffffffffffffffffffffffffffffffffffffff1602179055508173ffffffffffffffffffffffffffffffffffffffff168173ffffffffffffffffffffffffffffffffffffffff167f8be0079c531659141344cd1fd0a4f28419497f9722a3daafe3b4186f6b6457e060405160405180910390a35050565b6117df846323b872dd60e01b85858560405160240161177d93929190612384565b604051602081830303815290604052907bffffffffffffffffffffffffffffffffffffffffffffffffffffffff19166020820180517bffffffffffffffffffffffffffffffffffffffffffffffffffffffff83818316178352505050506117fe565b50505050565b60008183106117f457816117f6565b825b905092915050565b6000611860826040518060400160405280602081526020017f5361666545524332303a206c6f772d6c6576656c2063616c6c206661696c65648152508573ffffffffffffffffffffffffffffffffffffffff166118c59092919063ffffffff16565b90506000815111156118c0578080602001905181019061188091906123f3565b6118bf576040517f08c379a00000000000000000000000000000000000000000000000000000000081526004016118b690612492565b60405180910390fd5b5b505050565b60606118d484846000856118dd565b90509392505050565b606082471015611922576040517f08c379a000000000000000000000000000000000000000000000000000000000815260040161191990612524565b60405180910390fd5b61192b856119f1565b61196a576040517f08c379a000000000000000000000000000000000000000000000000000000000815260040161196190612590565b60405180910390fd5b6000808673ffffffffffffffffffffffffffffffffffffffff168587604051611993919061262a565b60006040518083038185875af1925050503d80600081146119d0576040519150601f19603f3d011682016040523d82523d6000602084013e6119d5565b606091505b50915091506119e5828286611a04565b92505050949350505050565b600080823b905060008111915050919050565b60608315611a1457829050611a64565b600083511115611a275782518084602001fd5b816040517f08c379a0000000000000000000000000000000000000000000000000000000008152600401611a5b9190612696565b60405180910390fd5b9392505050565b600080fd5b600073ffffffffffffffffffffffffffffffffffffffff82169050919050565b6000611a9b82611a70565b9050919050565b611aab81611a90565b8114611ab657600080fd5b50565b600081359050611ac881611aa2565b92915050565b600060208284031215611ae457611ae3611a6b565b5b6000611af284828501611ab9565b91505092915050565b6000819050919050565b611b0e81611afb565b82525050565b6000602082019050611b296000830184611b05565b92915050565b611b3881611afb565b8114611b4357600080fd5b50565b600081359050611b5581611b2f565b92915050565b60008060408385031215611b7257611b71611a6b565b5b6000611b8085828601611b46565b9250506020611b9185828601611ab9565b9150509250929050565b611ba481611a90565b82525050565b6000602082019050611bbf6000830184611b9b565b92915050565b600060208284031215611bdb57611bda611a6b565b5b6000611be984828501611b46565b91505092915050565b6000819050919050565b6000611c17611c12611c0d84611a70565b611bf2565b611a70565b9050919050565b6000611c2982611bfc565b9050919050565b6000611c3b82611c1e565b9050919050565b611c4b81611c30565b82525050565b6000602082019050611c666000830184611c42565b92915050565b6000611c7782611a90565b9050919050565b611c8781611c6c565b8114611c9257600080fd5b50565b600081359050611ca481611c7e565b92915050565b600080600060608486031215611cc357611cc2611a6b565b5b6000611cd186828701611c95565b9350506020611ce286828701611b46565b9250506040611cf386828701611ab9565b9150509250925092565b600080600060608486031215611d1657611d15611a6b565b5b6000611d2486828701611b46565b9350506020611d3586828701611b46565b9250506040611d4686828701611b46565b9150509250925092565b7f4e487b7100000000000000000000000000000000000000000000000000000000600052601160045260246000fd5b6000611d8a82611afb565b9150611d9583611afb565b925082821015611da857611da7611d50565b5b828203905092915050565b6000611dbe82611afb565b9150611dc983611afb565b9250817fffffffffffffffffffffffffffffffffffffffffffffffffffffffffffffffff0483118215151615611e0257611e01611d50565b5b828202905092915050565b7f4e487b7100000000000000000000000000000000000000000000000000000000600052601260045260246000fd5b6000611e4782611afb565b9150611e5283611afb565b925082611e6257611e61611e0d565b5b828204905092915050565b6000611e7882611afb565b9150611e8383611afb565b9250827fffffffffffffffffffffffffffffffffffffffffffffffffffffffffffffffff03821115611eb857611eb7611d50565b5b828201905092915050565b600082825260208201905092915050565b7f4f776e61626c653a2063616c6c6572206973206e6f7420746865206f776e6572600082015250565b6000611f0a602083611ec3565b9150611f1582611ed4565b602082019050919050565b60006020820190508181036000830152611f3981611efd565b9050919050565b7f4c505374616b696e67506f6f6c3a206e6f742073746172740000000000000000600082015250565b6000611f76601883611ec3565b9150611f8182611f40565b602082019050919050565b60006020820190508181036000830152611fa581611f69565b9050919050565b7f4c505374616b696e67506f6f6c3a2043616e6e6f742077697468647261772030600082015250565b6000611fe2602083611ec3565b9150611fed82611fac565b602082019050919050565b6000602082019050818103600083015261201181611fd5565b9050919050565b7f4c505374616b696e67506f6f6c3a204e6f7420416c6c6f77206c70546f6b656e600082015250565b600061204e602083611ec3565b915061205982612018565b602082019050919050565b6000602082019050818103600083015261207d81612041565b9050919050565b7f4c505374616b696e67506f6f6c3a204e6f7420416c6c6f772074697469000000600082015250565b60006120ba601d83611ec3565b91506120c582612084565b602082019050919050565b600060208201905081810360008301526120e9816120ad565b9050919050565b7f4c505374616b696e67506f6f6c3a2043616c6c6572206973206e6f742072657760008201527f61726420646973747269627574696f6e00000000000000000000000000000000602082015250565b600061214c603083611ec3565b9150612157826120f0565b604082019050919050565b6000602082019050818103600083015261217b8161213f565b9050919050565b7f4c505374616b696e67506f6f6c3a204c6173742045706f6368206973206e6f7460008201527f20656e6400000000000000000000000000000000000000000000000000000000602082015250565b60006121de602483611ec3565b91506121e982612182565b604082019050919050565b6000602082019050818103600083015261220d816121d1565b9050919050565b600061221f82611afb565b91507fffffffffffffffffffffffffffffffffffffffffffffffffffffffffffffffff82141561225257612251611d50565b5b600182019050919050565b7f4c505374616b696e67506f6f6c3a2043616e6e6f74207374616b652030000000600082015250565b6000612293601d83611ec3565b915061229e8261225d565b602082019050919050565b600060208201905081810360008301526122c281612286565b9050919050565b7f4f776e61626c653a206e6577206f776e657220697320746865207a65726f206160008201527f6464726573730000000000000000000000000000000000000000000000000000602082015250565b6000612325602683611ec3565b9150612330826122c9565b604082019050919050565b6000602082019050818103600083015261235481612318565b9050919050565b60006040820190506123706000830185611b9b565b61237d6020830184611b05565b9392505050565b60006060820190506123996000830186611b9b565b6123a66020830185611b9b565b6123b36040830184611b05565b949350505050565b60008115159050919050565b6123d0816123bb565b81146123db57600080fd5b50565b6000815190506123ed816123c7565b92915050565b60006020828403121561240957612408611a6b565b5b6000612417848285016123de565b91505092915050565b7f5361666545524332303a204552433230206f7065726174696f6e20646964206e60008201527f6f74207375636365656400000000000000000000000000000000000000000000602082015250565b600061247c602a83611ec3565b915061248782612420565b604082019050919050565b600060208201905081810360008301526124ab8161246f565b9050919050565b7f416464726573733a20696e73756666696369656e742062616c616e636520666f60008201527f722063616c6c0000000000000000000000000000000000000000000000000000602082015250565b600061250e602683611ec3565b9150612519826124b2565b604082019050919050565b6000602082019050818103600083015261253d81612501565b9050919050565b7f416464726573733a2063616c6c20746f206e6f6e2d636f6e7472616374000000600082015250565b600061257a601d83611ec3565b915061258582612544565b602082019050919050565b600060208201905081810360008301526125a98161256d565b9050919050565b600081519050919050565b600081905092915050565b60005b838110156125e45780820151818401526020810190506125c9565b838111156125f3576000848401525b50505050565b6000612604826125b0565b61260e81856125bb565b935061261e8185602086016125c6565b80840191505092915050565b600061263682846125f9565b915081905092915050565b600081519050919050565b6000601f19601f8301169050919050565b600061266882612641565b6126728185611ec3565b93506126828185602086016125c6565b61268b8161264c565b840191505092915050565b600060208201905081810360008301526126b0818461265d565b90509291505056fea26469706673582212200815152e4d4d6cd208411ca019980fc2b0f57742919dda716f396ea5a041ecf364736f6c63430008090033",
  "immutableReferences": {
    "14515": [
      {
        "length": 32,
        "start": 2427
      },
      {
        "length": 32,
        "start": 2912
      },
      {
        "length": 32,
        "start": 3332
      },
      {
        "length": 32,
        "start": 4275
      }
    ]
  },
  "source": "// SPDX-License-Identifier: MIT\npragma solidity ^0.8.2;\n\nimport \"@openzeppelin/contracts/access/Ownable.sol\";\nimport \"@openzeppelin/contracts/token/ERC20/IERC20.sol\";\nimport \"@openzeppelin/contracts/utils/math/Math.sol\";\nimport \"@openzeppelin/contracts/token/ERC20/utils/SafeERC20.sol\";\n\nabstract contract IRewardDistributionRecipient is Ownable {\n    address public rewardDistribution;\n\n    modifier onlyRewardDistribution() {\n        require(_msgSender() == rewardDistribution, \"LPStakingPool: Caller is not reward distribution\");\n        _;\n    }\n\n    function setRewardDistribution(address _rewardDistribution)\n        external\n        onlyOwner\n    {\n        rewardDistribution = _rewardDistribution;\n    }\n}\n\ncontract LPTokenWrapper {\n    using SafeERC20 for IERC20;\n\n    IERC20 public lpToken;\n\n    uint256 private _totalSupply;\n    mapping(address => uint256) private _balances;\n\n    function totalSupply() public view returns (uint256) {\n        return _totalSupply;\n    }\n\n    function balanceOf(address account) public view returns (uint256) {\n        return _balances[account];\n    }\n\n    function stake(uint256 amount, address staker) virtual public {\n        _totalSupply = _totalSupply + amount;\n        _balances[staker] = _balances[staker] + amount;\n        lpToken.safeTransferFrom(msg.sender, address(this), amount);\n    }\n\n    function withdraw(uint256 amount, address staker) virtual public {\n        _totalSupply = _totalSupply - amount;\n        _balances[staker] = _balances[staker] - amount;\n        lpToken.safeTransfer(msg.sender, amount);\n    }\n}\n\n/// @title The LP Staking Pool module of TiTi Protocol\n/// @author QJ\n/// @notice Users stake their LPToken to get TiTi rewards.\ncontract LPStakingPool is LPTokenWrapper, IRewardDistributionRecipient {\n    using SafeERC20 for IERC20;\n\n    IERC20 public immutable titi;\n    uint256 public startTime;\n    uint256 public periodFinish;\n    uint256 public rewardRate;\n    uint256 public lastUpdateTime;\n    uint256 public rewardPerTokenStored;\n    uint256 public epochNum;\n\n    mapping(address => uint256) public userRewardPerTokenPaid;\n    mapping(address => uint256) public rewards;\n\n    event RewardAdded(uint256 reward);\n    event Staked(address indexed user, uint256 amount);\n    event Withdrawn(address indexed user, uint256 amount);\n    event RewardPaid(address indexed user, uint256 reward);\n\n    constructor(address _titi, address _lpToken) {\n        titi = IERC20(_titi);\n        lpToken = IERC20(_lpToken);\n    }\n\n    /// @notice Start a new round of TiTi release\n    /// @param _startTime Start Time in this round\n    /// @param _newRewards Amount of TiTi incentives in this round\n    /// @param _duration This round of TiTi incentive cycle\n    function startNewEpoch(uint256 _startTime, uint256 _newRewards, uint256 _duration)\n        external\n        onlyRewardDistribution\n        updateReward(address(0)) \n    {\n        require(block.timestamp >= periodFinish, \"LPStakingPool: Last Epoch is not end\");\n        startTime = _startTime;\n        lastUpdateTime = _startTime;\n        rewardRate = _newRewards / _duration;\n        periodFinish = startTime + _duration;\n        titi.safeTransferFrom(msg.sender, address(this), _newRewards);\n        epochNum = epochNum++;\n        emit RewardAdded(_newRewards);\n    }\n\n    modifier checkStart() {\n        require(startTime != uint256(0), \"LPStakingPool: not start\");\n        _;\n    }\n\n    modifier updateReward(address account) {\n        rewardPerTokenStored = rewardPerToken();\n        lastUpdateTime = lastTimeRewardApplicable();\n        if (account != address(0)) {\n            rewards[account] = earned(account);\n            userRewardPerTokenPaid[account] = rewardPerTokenStored;\n        }\n        _;\n    }\n\n    function lastTimeRewardApplicable() public view returns (uint256) {\n        uint _lastTime;\n        if (block.timestamp < startTime) {\n            _lastTime = startTime;\n        } else {\n            _lastTime = Math.min(block.timestamp, periodFinish);\n        }\n        return _lastTime;\n    }\n\n    function rewardPerToken() public view returns (uint256) {\n        if (totalSupply() == 0) {\n            return rewardPerTokenStored;\n        }\n        return\n            rewardPerTokenStored + (\n                lastTimeRewardApplicable()\n                    - lastUpdateTime)\n                    * rewardRate\n                    * 1e18\n                    / totalSupply();\n    }\n\n    function earned(address account) public view returns (uint256) {\n        return\n            balanceOf(account)\n                * (rewardPerToken() - userRewardPerTokenPaid[account])\n                / 1e18\n                + rewards[account];\n    }\n\n    function stake(uint256 amount) external updateReward(msg.sender) checkStart {\n        require(amount > 0, \"LPStakingPool: Cannot stake 0\");\n        super.stake(amount, msg.sender);\n        emit Staked(msg.sender, amount);\n    }\n\n    function withdraw(uint256 amount) external updateReward(msg.sender) checkStart {\n        require(amount > 0, \"LPStakingPool: Cannot withdraw 0\");\n        super.withdraw(amount, msg.sender);\n        emit Withdrawn(msg.sender, amount);\n    }\n    \n    function getReward() external updateReward(msg.sender) checkStart {\n        uint256 reward = rewards[msg.sender];\n        if (reward > 0) {\n            rewards[msg.sender] = 0;\n            titi.safeTransfer(msg.sender, reward);\n            emit RewardPaid(msg.sender, reward);\n        }\n    }\n\n    /// @notice This function allows governance to take unsupported tokens out of the\n    // contract, since this one exists longer than the other pools.\n    // This is in an effort to make someone whole, should they seriously\n    // mess up. There is no guarantee governance will vote to return these.\n    // It also allows for removal of airdropped tokens.\n    function governanceRecoverUnsupported(IERC20 _token, uint256 amount, address to) external onlyOwner {\n        // cant take staked asset\n        require(_token != lpToken, \"LPStakingPool: Not Allow lpToken\");\n        // cant take reward asset\n        require(_token != titi, \"LPStakingPool: Not Allow titi\");\n\n        // transfer to\n        _token.safeTransfer(to, amount);\n    }\n}\n",
  "sourcePath": "D:\\myProject\\Titi\\contract\\TiTi-Core-Protocol\\contracts\\staking\\LPStakingPool.sol",
  "compiler": {
    "name": "solc",
    "version": "0.8.9+commit.e5eed63a.Emscripten.clang"
  },
  "schemaVersion": "3.4.4",
  "updatedAt": "2022-02-28T03:41:00.386Z",
  "devdoc": {
    "author": "QJ",
    "kind": "dev",
    "methods": {
      "owner()": {
        "details": "Returns the address of the current owner."
      },
      "renounceOwnership()": {
        "details": "Leaves the contract without owner. It will not be possible to call `onlyOwner` functions anymore. Can only be called by the current owner. NOTE: Renouncing ownership will leave the contract without an owner, thereby removing any functionality that is only available to the owner."
      },
      "startNewEpoch(uint256,uint256,uint256)": {
        "params": {
          "_duration": "This round of TiTi incentive cycle",
          "_newRewards": "Amount of TiTi incentives in this round",
          "_startTime": "Start Time in this round"
        }
      },
      "transferOwnership(address)": {
        "details": "Transfers ownership of the contract to a new account (`newOwner`). Can only be called by the current owner."
      }
    },
    "title": "The LP Staking Pool module of TiTi Protocol",
    "version": 1
  },
  "userdoc": {
    "kind": "user",
    "methods": {
      "governanceRecoverUnsupported(address,uint256,address)": {
        "notice": "This function allows governance to take unsupported tokens out of the"
      },
      "startNewEpoch(uint256,uint256,uint256)": {
        "notice": "Start a new round of TiTi release"
      }
    },
    "notice": "Users stake their LPToken to get TiTi rewards.",
    "version": 1
  }
}