{
  "contractName": "TiTiBackendV1",
  "abi": [
    {
      "anonymous": false,
      "inputs": [
        {
          "indexed": true,
          "internalType": "address",
          "name": "previousOwner",
          "type": "address"
        },
        {
          "indexed": true,
          "internalType": "address",
          "name": "newOwner",
          "type": "address"
        }
      ],
      "name": "OwnershipTransferred",
      "type": "event"
    },
    {
      "anonymous": false,
      "inputs": [
        {
          "indexed": false,
          "internalType": "uint256",
          "name": "epochNum",
          "type": "uint256"
        },
        {
          "indexed": false,
          "internalType": "uint256",
          "name": "totalRewards",
          "type": "uint256"
        },
        {
          "indexed": false,
          "internalType": "uint256",
          "name": "duration",
          "type": "uint256"
        },
        {
          "indexed": false,
          "internalType": "uint256",
          "name": "starttime",
          "type": "uint256"
        }
      ],
      "name": "StartNewEpoch",
      "type": "event"
    },
    {
      "inputs": [],
      "name": "duration",
      "outputs": [
        {
          "internalType": "uint256",
          "name": "",
          "type": "uint256"
        }
      ],
      "stateMutability": "view",
      "type": "function",
      "constant": true
    },
    {
      "inputs": [],
      "name": "epochNum",
      "outputs": [
        {
          "internalType": "uint256",
          "name": "",
          "type": "uint256"
        }
      ],
      "stateMutability": "view",
      "type": "function",
      "constant": true
    },
    {
      "inputs": [],
      "name": "owner",
      "outputs": [
        {
          "internalType": "address",
          "name": "",
          "type": "address"
        }
      ],
      "stateMutability": "view",
      "type": "function",
      "constant": true
    },
    {
      "inputs": [],
      "name": "renounceOwnership",
      "outputs": [],
      "stateMutability": "nonpayable",
      "type": "function"
    },
    {
      "inputs": [],
      "name": "starttime",
      "outputs": [
        {
          "internalType": "uint256",
          "name": "",
          "type": "uint256"
        }
      ],
      "stateMutability": "view",
      "type": "function",
      "constant": true
    },
    {
      "inputs": [],
      "name": "totalRewards",
      "outputs": [
        {
          "internalType": "uint256",
          "name": "",
          "type": "uint256"
        }
      ],
      "stateMutability": "view",
      "type": "function",
      "constant": true
    },
    {
      "inputs": [
        {
          "internalType": "address",
          "name": "newOwner",
          "type": "address"
        }
      ],
      "name": "transferOwnership",
      "outputs": [],
      "stateMutability": "nonpayable",
      "type": "function"
    },
    {
      "inputs": [],
      "name": "initialize",
      "outputs": [],
      "stateMutability": "nonpayable",
      "type": "function"
    },
    {
      "inputs": [
        {
          "internalType": "uint256",
          "name": "_epochNum",
          "type": "uint256"
        },
        {
          "internalType": "uint256",
          "name": "_totalRewards",
          "type": "uint256"
        },
        {
          "internalType": "uint256",
          "name": "_duration",
          "type": "uint256"
        },
        {
          "internalType": "uint256",
          "name": "_starttime",
          "type": "uint256"
        }
      ],
      "name": "startNewEpoch",
      "outputs": [],
      "stateMutability": "nonpayable",
      "type": "function"
    }
  ],
  "bytecode": "0x608060405234801561001057600080fd5b50610c16806100206000396000f3fe608060405234801561001057600080fd5b50600436106100935760003560e01c8063715018a611610066578063715018a61461010e5780638129fc1c146101185780638da58897146101225780638da5cb5b14610140578063f2fde38b1461015e57610093565b806305e3c05b146100985780630e15561a146100b65780630fb5a6b4146100d45780633506f910146100f2575b600080fd5b6100a061017a565b6040516100ad9190610892565b60405180910390f35b6100be610180565b6040516100cb9190610892565b60405180910390f35b6100dc610186565b6040516100e99190610892565b60405180910390f35b61010c600480360381019061010791906108de565b61018c565b005b61011661026f565b005b6101206102f7565b005b61012a6103d8565b6040516101379190610892565b60405180910390f35b6101486103de565b6040516101559190610986565b60405180910390f35b610178600480360381019061017391906109cd565b610408565b005b60655481565b60665481565b60675481565b610194610500565b73ffffffffffffffffffffffffffffffffffffffff166101b26103de565b73ffffffffffffffffffffffffffffffffffffffff1614610208576040517f08c379a00000000000000000000000000000000000000000000000000000000081526004016101ff90610a57565b60405180910390fd5b836065819055508260668190555081606781905550806068819055507f071fa792ef8a93a5fca99c4755db5ebedc11e8b56e63b37f1eac031756272f4e6065546066546067546068546040516102619493929190610a77565b60405180910390a150505050565b610277610500565b73ffffffffffffffffffffffffffffffffffffffff166102956103de565b73ffffffffffffffffffffffffffffffffffffffff16146102eb576040517f08c379a00000000000000000000000000000000000000000000000000000000081526004016102e290610a57565b60405180910390fd5b6102f56000610508565b565b600060019054906101000a900460ff168061031d575060008054906101000a900460ff16155b61035c576040517f08c379a000000000000000000000000000000000000000000000000000000000815260040161035390610b2e565b60405180910390fd5b60008060019054906101000a900460ff1615905080156103ac576001600060016101000a81548160ff02191690831515021790555060016000806101000a81548160ff0219169083151502179055505b6103b46105ce565b80156103d55760008060016101000a81548160ff0219169083151502179055505b50565b60685481565b6000603360009054906101000a900473ffffffffffffffffffffffffffffffffffffffff16905090565b610410610500565b73ffffffffffffffffffffffffffffffffffffffff1661042e6103de565b73ffffffffffffffffffffffffffffffffffffffff1614610484576040517f08c379a000000000000000000000000000000000000000000000000000000000815260040161047b90610a57565b60405180910390fd5b600073ffffffffffffffffffffffffffffffffffffffff168173ffffffffffffffffffffffffffffffffffffffff1614156104f4576040517f08c379a00000000000000000000000000000000000000000000000000000000081526004016104eb90610bc0565b60405180910390fd5b6104fd81610508565b50565b600033905090565b6000603360009054906101000a900473ffffffffffffffffffffffffffffffffffffffff16905081603360006101000a81548173ffffffffffffffffffffffffffffffffffffffff021916908373ffffffffffffffffffffffffffffffffffffffff1602179055508173ffffffffffffffffffffffffffffffffffffffff168173ffffffffffffffffffffffffffffffffffffffff167f8be0079c531659141344cd1fd0a4f28419497f9722a3daafe3b4186f6b6457e060405160405180910390a35050565b600060019054906101000a900460ff16806105f4575060008054906101000a900460ff16155b610633576040517f08c379a000000000000000000000000000000000000000000000000000000000815260040161062a90610b2e565b60405180910390fd5b60008060019054906101000a900460ff161590508015610683576001600060016101000a81548160ff02191690831515021790555060016000806101000a81548160ff0219169083151502179055505b61068b6106b7565b610693610790565b80156106b45760008060016101000a81548160ff0219169083151502179055505b50565b600060019054906101000a900460ff16806106dd575060008054906101000a900460ff16155b61071c576040517f08c379a000000000000000000000000000000000000000000000000000000000815260040161071390610b2e565b60405180910390fd5b60008060019054906101000a900460ff16159050801561076c576001600060016101000a81548160ff02191690831515021790555060016000806101000a81548160ff0219169083151502179055505b801561078d5760008060016101000a81548160ff0219169083151502179055505b50565b600060019054906101000a900460ff16806107b6575060008054906101000a900460ff16155b6107f5576040517f08c379a00000000000000000000000000000000000000000000000000000000081526004016107ec90610b2e565b60405180910390fd5b60008060019054906101000a900460ff161590508015610845576001600060016101000a81548160ff02191690831515021790555060016000806101000a81548160ff0219169083151502179055505b610855610850610500565b610508565b80156108765760008060016101000a81548160ff0219169083151502179055505b50565b6000819050919050565b61088c81610879565b82525050565b60006020820190506108a76000830184610883565b92915050565b600080fd5b6108bb81610879565b81146108c657600080fd5b50565b6000813590506108d8816108b2565b92915050565b600080600080608085870312156108f8576108f76108ad565b5b6000610906878288016108c9565b9450506020610917878288016108c9565b9350506040610928878288016108c9565b9250506060610939878288016108c9565b91505092959194509250565b600073ffffffffffffffffffffffffffffffffffffffff82169050919050565b600061097082610945565b9050919050565b61098081610965565b82525050565b600060208201905061099b6000830184610977565b92915050565b6109aa81610965565b81146109b557600080fd5b50565b6000813590506109c7816109a1565b92915050565b6000602082840312156109e3576109e26108ad565b5b60006109f1848285016109b8565b91505092915050565b600082825260208201905092915050565b7f4f776e61626c653a2063616c6c6572206973206e6f7420746865206f776e6572600082015250565b6000610a416020836109fa565b9150610a4c82610a0b565b602082019050919050565b60006020820190508181036000830152610a7081610a34565b9050919050565b6000608082019050610a8c6000830187610883565b610a996020830186610883565b610aa66040830185610883565b610ab36060830184610883565b95945050505050565b7f496e697469616c697a61626c653a20636f6e747261637420697320616c72656160008201527f647920696e697469616c697a6564000000000000000000000000000000000000602082015250565b6000610b18602e836109fa565b9150610b2382610abc565b604082019050919050565b60006020820190508181036000830152610b4781610b0b565b9050919050565b7f4f776e61626c653a206e6577206f776e657220697320746865207a65726f206160008201527f6464726573730000000000000000000000000000000000000000000000000000602082015250565b6000610baa6026836109fa565b9150610bb582610b4e565b604082019050919050565b60006020820190508181036000830152610bd981610b9d565b905091905056fea26469706673582212209dcc29c71e71ec6cbe337b04055da2f420d717b5bbca7aced2d13b9747de80bc64736f6c63430008090033",
  "immutableReferences": {},
  "source": "// SPDX-License-Identifier: MIT\r\npragma solidity ^0.8.2;\r\n\r\nabstract contract Initializable {\r\n    /**\r\n     * @dev Indicates that the contract has been initialized.\r\n     */\r\n    bool private _initialized;\r\n\r\n    /**\r\n     * @dev Indicates that the contract is in the process of being initialized.\r\n     */\r\n    bool private _initializing;\r\n\r\n    /**\r\n     * @dev Modifier to protect an initializer function from being invoked twice.\r\n     */\r\n    modifier initializer() {\r\n        require(_initializing || !_initialized, \"Initializable: contract is already initialized\");\r\n\r\n        bool isTopLevelCall = !_initializing;\r\n        if (isTopLevelCall) {\r\n            _initializing = true;\r\n            _initialized = true;\r\n        }\r\n\r\n        _;\r\n\r\n        if (isTopLevelCall) {\r\n            _initializing = false;\r\n        }\r\n    }\r\n}\r\n\r\nabstract contract ContextUpgradeable is Initializable {\r\n    function __Context_init() internal initializer {\r\n        __Context_init_unchained();\r\n    }\r\n\r\n    function __Context_init_unchained() internal initializer {\r\n    }\r\n    function _msgSender() internal view virtual returns (address) {\r\n        return msg.sender;\r\n    }\r\n\r\n    function _msgData() internal view virtual returns (bytes calldata) {\r\n        return msg.data;\r\n    }\r\n    uint256[50] private __gap;\r\n}\r\n\r\nabstract contract OwnableUpgradeable is Initializable, ContextUpgradeable {\r\n    address private _owner;\r\n\r\n    event OwnershipTransferred(address indexed previousOwner, address indexed newOwner);\r\n\r\n    /**\r\n     * @dev Initializes the contract setting the deployer as the initial owner.\r\n     */\r\n    function __Ownable_init() internal initializer {\r\n        __Context_init_unchained();\r\n        __Ownable_init_unchained();\r\n    }\r\n\r\n    function __Ownable_init_unchained() internal initializer {\r\n        _setOwner(_msgSender());\r\n    }\r\n\r\n    /**\r\n     * @dev Returns the address of the current owner.\r\n     */\r\n    function owner() public view virtual returns (address) {\r\n        return _owner;\r\n    }\r\n\r\n    /**\r\n     * @dev Throws if called by any account other than the owner.\r\n     */\r\n    modifier onlyOwner() {\r\n        require(owner() == _msgSender(), \"Ownable: caller is not the owner\");\r\n        _;\r\n    }\r\n\r\n    /**\r\n     * @dev Leaves the contract without owner. It will not be possible to call\r\n     * `onlyOwner` functions anymore. Can only be called by the current owner.\r\n     *\r\n     * NOTE: Renouncing ownership will leave the contract without an owner,\r\n     * thereby removing any functionality that is only available to the owner.\r\n     */\r\n    function renounceOwnership() public virtual onlyOwner {\r\n        _setOwner(address(0));\r\n    }\r\n\r\n    /**\r\n     * @dev Transfers ownership of the contract to a new account (`newOwner`).\r\n     * Can only be called by the current owner.\r\n     */\r\n    function transferOwnership(address newOwner) public virtual onlyOwner {\r\n        require(newOwner != address(0), \"Ownable: new owner is the zero address\");\r\n        _setOwner(newOwner);\r\n    }\r\n\r\n    function _setOwner(address newOwner) private {\r\n        address oldOwner = _owner;\r\n        _owner = newOwner;\r\n        emit OwnershipTransferred(oldOwner, newOwner);\r\n    }\r\n    uint256[49] private __gap;\r\n}\r\n\r\n\r\ncontract TiTiBackendV1 is OwnableUpgradeable {\r\n    uint public epochNum;\r\n    uint public totalRewards;\r\n    uint public duration;\r\n    uint public starttime;\r\n\r\n    event StartNewEpoch(uint epochNum, uint totalRewards, uint duration, uint starttime);\r\n\r\n    function initialize() external initializer {\r\n        __Ownable_init();\r\n    }\r\n    \r\n    function startNewEpoch(uint _epochNum, uint _totalRewards, uint _duration, uint _starttime) external onlyOwner {\r\n        epochNum = _epochNum;\r\n        totalRewards = _totalRewards;\r\n        duration = _duration;\r\n        starttime = _starttime;\r\n        emit StartNewEpoch(epochNum, totalRewards, duration, starttime);\r\n    }\r\n}",
  "sourcePath": "D:\\myProject\\Titi\\contract\\titi-backend-contracts\\contracts\\TiTiBackendV1.sol",
  "compiler": {
    "name": "solc",
    "version": "0.8.9+commit.e5eed63a.Emscripten.clang"
  },
  "schemaVersion": "3.4.4",
  "updatedAt": "2022-02-11T03:52:46.612Z",
  "networkType": "ethereum",
  "devdoc": {
    "kind": "dev",
    "methods": {
      "owner()": {
        "details": "Returns the address of the current owner."
      },
      "renounceOwnership()": {
        "details": "Leaves the contract without owner. It will not be possible to call `onlyOwner` functions anymore. Can only be called by the current owner. NOTE: Renouncing ownership will leave the contract without an owner, thereby removing any functionality that is only available to the owner."
      },
      "transferOwnership(address)": {
        "details": "Transfers ownership of the contract to a new account (`newOwner`). Can only be called by the current owner."
      }
    },
    "version": 1
  },
  "userdoc": {
    "kind": "user",
    "methods": {},
    "version": 1
  }
}